{
  "address": "0x7C1f19DFC45d8Cc8C9284B52bEB96Dc668069B5e",
  "_format": "hh-sol-artifact-1",
  "contractName": "Marketplace",
  "sourceName": "contracts/Marketplace.sol",
  "abi": [
    {
      "anonymous": false,
      "inputs": [
        {
          "indexed": true,
          "internalType": "uint256",
          "name": "id",
          "type": "uint256"
        },
        {
          "indexed": true,
          "internalType": "address",
          "name": "oldOwner",
          "type": "address"
        },
        {
          "indexed": true,
          "internalType": "address",
          "name": "newOwner",
          "type": "address"
        },
        {
          "indexed": false,
          "internalType": "uint256",
          "name": "price",
          "type": "uint256"
        }
      ],
      "name": "ProductPurchased",
      "type": "event"
    },
    {
      "anonymous": false,
      "inputs": [
        {
          "indexed": true,
          "internalType": "uint256",
          "name": "id",
          "type": "uint256"
        },
        {
          "indexed": true,
          "internalType": "address",
          "name": "owner",
          "type": "address"
        },
        {
          "indexed": false,
          "internalType": "uint256",
          "name": "price",
          "type": "uint256"
        }
      ],
      "name": "ProductRegistered",
      "type": "event"
    },
    {
      "inputs": [],
      "name": "getAllProducts",
      "outputs": [
        {
          "components": [
            {
              "internalType": "uint256",
              "name": "id",
              "type": "uint256"
            },
            {
              "internalType": "string",
              "name": "name",
              "type": "string"
            },
            {
              "internalType": "string[]",
              "name": "imageUrls",
              "type": "string[]"
            },
            {
              "internalType": "string",
              "name": "description",
              "type": "string"
            },
            {
              "internalType": "uint256",
              "name": "price",
              "type": "uint256"
            },
            {
              "internalType": "address payable",
              "name": "owner",
              "type": "address"
            },
            {
              "internalType": "bool",
              "name": "isSold",
              "type": "bool"
            }
          ],
          "internalType": "struct Marketplace.Product[]",
          "name": "",
          "type": "tuple[]"
        }
      ],
      "stateMutability": "view",
      "type": "function"
    },
    {
      "inputs": [],
      "name": "productCount",
      "outputs": [
        {
          "internalType": "uint256",
          "name": "",
          "type": "uint256"
        }
      ],
      "stateMutability": "view",
      "type": "function"
    },
    {
      "inputs": [
        {
          "internalType": "uint256",
          "name": "",
          "type": "uint256"
        }
      ],
      "name": "products",
      "outputs": [
        {
          "internalType": "uint256",
          "name": "id",
          "type": "uint256"
        },
        {
          "internalType": "string",
          "name": "name",
          "type": "string"
        },
        {
          "internalType": "string",
          "name": "description",
          "type": "string"
        },
        {
          "internalType": "uint256",
          "name": "price",
          "type": "uint256"
        },
        {
          "internalType": "address payable",
          "name": "owner",
          "type": "address"
        },
        {
          "internalType": "bool",
          "name": "isSold",
          "type": "bool"
        }
      ],
      "stateMutability": "view",
      "type": "function"
    },
    {
      "inputs": [
        {
          "internalType": "uint256",
          "name": "_id",
          "type": "uint256"
        }
      ],
      "name": "purchaseProduct",
      "outputs": [],
      "stateMutability": "payable",
      "type": "function"
    },
    {
      "inputs": [
        {
          "internalType": "string",
          "name": "_name",
          "type": "string"
        },
        {
          "internalType": "uint256",
          "name": "_price",
          "type": "uint256"
        },
        {
          "internalType": "string[]",
          "name": "_imageUrls",
          "type": "string[]"
        },
        {
          "internalType": "string",
          "name": "_description",
          "type": "string"
        }
      ],
      "name": "registerProduct",
      "outputs": [],
      "stateMutability": "nonpayable",
      "type": "function"
    }
  ],
  "bytecode": "0x608060405234801561001057600080fd5b50611d74806100206000396000f3fe60806040526004361061004a5760003560e01c806302ee3a521461004f57806338e76a031461007a5780637acc0b2014610096578063ab572f34146100d8578063e0f6ef8714610101575b600080fd5b34801561005b57600080fd5b5061006461012c565b604051610071919061107c565b60405180910390f35b610094600480360381019061008f91906110de565b61047c565b005b3480156100a257600080fd5b506100bd60048036038101906100b891906110de565b6107b3565b6040516100cf96959493929190611182565b60405180910390f35b3480156100e457600080fd5b506100ff60048036038101906100fa919061140c565b61092c565b005b34801561010d57600080fd5b50610116610c14565b60405161012391906114c7565b60405180910390f35b60606000805467ffffffffffffffff81111561014b5761014a6111fb565b5b60405190808252806020026020018201604052801561018457816020015b610171610c1a565b8152602001906001900390816101695790505b5090506000600190505b600054811161047457600160008281526020019081526020016000206040518060e0016040529081600082015481526020016001820180546101cf90611511565b80601f01602080910402602001604051908101604052809291908181526020018280546101fb90611511565b80156102485780601f1061021d57610100808354040283529160200191610248565b820191906000526020600020905b81548152906001019060200180831161022b57829003601f168201915b5050505050815260200160028201805480602002602001604051908101604052809291908181526020016000905b8282101561032257838290600052602060002001805461029590611511565b80601f01602080910402602001604051908101604052809291908181526020018280546102c190611511565b801561030e5780601f106102e35761010080835404028352916020019161030e565b820191906000526020600020905b8154815290600101906020018083116102f157829003601f168201915b505050505081526020019060010190610276565b50505050815260200160038201805461033a90611511565b80601f016020809104026020016040519081016040528092919081815260200182805461036690611511565b80156103b35780601f10610388576101008083540402835291602001916103b3565b820191906000526020600020905b81548152906001019060200180831161039657829003601f168201915b50505050508152602001600482015481526020016005820160009054906101000a900473ffffffffffffffffffffffffffffffffffffffff1673ffffffffffffffffffffffffffffffffffffffff1673ffffffffffffffffffffffffffffffffffffffff1681526020016005820160149054906101000a900460ff161515151581525050826001836104459190611571565b81518110610456576104556115a5565b5b6020026020010181905250808061046c906115d4565b91505061018e565b508091505090565b60006001600083815260200190815260200160002090506000821180156104a557506000548211155b6104e4576040517f08c379a00000000000000000000000000000000000000000000000000000000081526004016104db90611668565b60405180910390fd5b8060050160149054906101000a900460ff1615610536576040517f08c379a000000000000000000000000000000000000000000000000000000000815260040161052d906116d4565b60405180910390fd5b8060050160009054906101000a900473ffffffffffffffffffffffffffffffffffffffff1673ffffffffffffffffffffffffffffffffffffffff163373ffffffffffffffffffffffffffffffffffffffff16036105c8576040517f08c379a00000000000000000000000000000000000000000000000000000000081526004016105bf90611766565b60405180910390fd5b8060040154341461060e576040517f08c379a0000000000000000000000000000000000000000000000000000000008152600401610605906117d2565b60405180910390fd5b60008160050160009054906101000a900473ffffffffffffffffffffffffffffffffffffffff169050338260050160006101000a81548173ffffffffffffffffffffffffffffffffffffffff021916908373ffffffffffffffffffffffffffffffffffffffff16021790555060018260050160146101000a81548160ff0219169083151502179055503373ffffffffffffffffffffffffffffffffffffffff168173ffffffffffffffffffffffffffffffffffffffff16847f89a8790373694cb8e6f5112d59a2e66f88c2be837274055780f8910dab3e695c85600401546040516106f991906114c7565b60405180910390a460008173ffffffffffffffffffffffffffffffffffffffff163460405161072790611823565b60006040518083038185875af1925050503d8060008114610764576040519150601f19603f3d011682016040523d82523d6000602084013e610769565b606091505b50509050806107ad576040517f08c379a00000000000000000000000000000000000000000000000000000000081526004016107a490611884565b60405180910390fd5b50505050565b60016020528060005260406000206000915090508060000154908060010180546107dc90611511565b80601f016020809104026020016040519081016040528092919081815260200182805461080890611511565b80156108555780601f1061082a57610100808354040283529160200191610855565b820191906000526020600020905b81548152906001019060200180831161083857829003601f168201915b50505050509080600301805461086a90611511565b80601f016020809104026020016040519081016040528092919081815260200182805461089690611511565b80156108e35780601f106108b8576101008083540402835291602001916108e3565b820191906000526020600020905b8154815290600101906020018083116108c657829003601f168201915b5050505050908060040154908060050160009054906101000a900473ffffffffffffffffffffffffffffffffffffffff16908060050160149054906101000a900460ff16905086565b6000831161096f576040517f08c379a0000000000000000000000000000000000000000000000000000000008152600401610966906118f0565b60405180910390fd5b60008451116109b3576040517f08c379a00000000000000000000000000000000000000000000000000000000081526004016109aa9061195c565b60405180910390fd5b60008151116109f7576040517f08c379a00000000000000000000000000000000000000000000000000000000081526004016109ee906119c8565b60405180910390fd5b6000825111610a3b576040517f08c379a0000000000000000000000000000000000000000000000000000000008152600401610a3290611a34565b60405180910390fd5b600a82511115610a80576040517f08c379a0000000000000000000000000000000000000000000000000000000008152600401610a7790611aa0565b60405180910390fd5b60008060008154610a90906115d4565b91905081905590506040518060e001604052808281526020018681526020018481526020018381526020018581526020013373ffffffffffffffffffffffffffffffffffffffff1681526020016000151581525060016000838152602001908152602001600020600082015181600001556020820151816001019081610b169190611c6c565b506040820151816002019080519060200190610b33929190610c6f565b506060820151816003019081610b499190611c6c565b506080820151816004015560a08201518160050160006101000a81548173ffffffffffffffffffffffffffffffffffffffff021916908373ffffffffffffffffffffffffffffffffffffffff16021790555060c08201518160050160146101000a81548160ff0219169083151502179055509050503373ffffffffffffffffffffffffffffffffffffffff16817fd0f37e02af4a813d92bc9e845f5c4064037807f33e36a932ea674cfe0f8cc1ef86604051610c0591906114c7565b60405180910390a35050505050565b60005481565b6040518060e001604052806000815260200160608152602001606081526020016060815260200160008152602001600073ffffffffffffffffffffffffffffffffffffffff1681526020016000151581525090565b828054828255906000526020600020908101928215610cb7579160200282015b82811115610cb6578251829081610ca69190611c6c565b5091602001919060010190610c8f565b5b509050610cc49190610cc8565b5090565b5b80821115610ce85760008181610cdf9190610cec565b50600101610cc9565b5090565b508054610cf890611511565b6000825580601f10610d0a5750610d29565b601f016020900490600052602060002090810190610d289190610d2c565b5b50565b5b80821115610d45576000816000905550600101610d2d565b5090565b600081519050919050565b600082825260208201905092915050565b6000819050602082019050919050565b6000819050919050565b610d8881610d75565b82525050565b600081519050919050565b600082825260208201905092915050565b60005b83811015610dc8578082015181840152602081019050610dad565b60008484015250505050565b6000601f19601f8301169050919050565b6000610df082610d8e565b610dfa8185610d99565b9350610e0a818560208601610daa565b610e1381610dd4565b840191505092915050565b600081519050919050565b600082825260208201905092915050565b6000819050602082019050919050565b6000610e568383610de5565b905092915050565b6000602082019050919050565b6000610e7682610e1e565b610e808185610e29565b935083602082028501610e9285610e3a565b8060005b85811015610ece5784840389528151610eaf8582610e4a565b9450610eba83610e5e565b925060208a01995050600181019050610e96565b50829750879550505050505092915050565b600073ffffffffffffffffffffffffffffffffffffffff82169050919050565b6000610f0b82610ee0565b9050919050565b610f1b81610f00565b82525050565b60008115159050919050565b610f3681610f21565b82525050565b600060e083016000830151610f546000860182610d7f565b5060208301518482036020860152610f6c8282610de5565b91505060408301518482036040860152610f868282610e6b565b91505060608301518482036060860152610fa08282610de5565b9150506080830151610fb56080860182610d7f565b5060a0830151610fc860a0860182610f12565b5060c0830151610fdb60c0860182610f2d565b508091505092915050565b6000610ff28383610f3c565b905092915050565b6000602082019050919050565b600061101282610d49565b61101c8185610d54565b93508360208202850161102e85610d65565b8060005b8581101561106a578484038952815161104b8582610fe6565b945061105683610ffa565b925060208a01995050600181019050611032565b50829750879550505050505092915050565b600060208201905081810360008301526110968184611007565b905092915050565b6000604051905090565b600080fd5b600080fd5b6110bb81610d75565b81146110c657600080fd5b50565b6000813590506110d8816110b2565b92915050565b6000602082840312156110f4576110f36110a8565b5b6000611102848285016110c9565b91505092915050565b61111481610d75565b82525050565b600082825260208201905092915050565b600061113682610d8e565b611140818561111a565b9350611150818560208601610daa565b61115981610dd4565b840191505092915050565b61116d81610f00565b82525050565b61117c81610f21565b82525050565b600060c082019050611197600083018961110b565b81810360208301526111a9818861112b565b905081810360408301526111bd818761112b565b90506111cc606083018661110b565b6111d96080830185611164565b6111e660a0830184611173565b979650505050505050565b600080fd5b600080fd5b7f4e487b7100000000000000000000000000000000000000000000000000000000600052604160045260246000fd5b61123382610dd4565b810181811067ffffffffffffffff82111715611252576112516111fb565b5b80604052505050565b600061126561109e565b9050611271828261122a565b919050565b600067ffffffffffffffff821115611291576112906111fb565b5b61129a82610dd4565b9050602081019050919050565b82818337600083830152505050565b60006112c96112c484611276565b61125b565b9050828152602081018484840111156112e5576112e46111f6565b5b6112f08482856112a7565b509392505050565b600082601f83011261130d5761130c6111f1565b5b813561131d8482602086016112b6565b91505092915050565b600067ffffffffffffffff821115611341576113406111fb565b5b602082029050602081019050919050565b600080fd5b600061136a61136584611326565b61125b565b9050808382526020820190506020840283018581111561138d5761138c611352565b5b835b818110156113d457803567ffffffffffffffff8111156113b2576113b16111f1565b5b8086016113bf89826112f8565b8552602085019450505060208101905061138f565b5050509392505050565b600082601f8301126113f3576113f26111f1565b5b8135611403848260208601611357565b91505092915050565b60008060008060808587031215611426576114256110a8565b5b600085013567ffffffffffffffff811115611444576114436110ad565b5b611450878288016112f8565b9450506020611461878288016110c9565b935050604085013567ffffffffffffffff811115611482576114816110ad565b5b61148e878288016113de565b925050606085013567ffffffffffffffff8111156114af576114ae6110ad565b5b6114bb878288016112f8565b91505092959194509250565b60006020820190506114dc600083018461110b565b92915050565b7f4e487b7100000000000000000000000000000000000000000000000000000000600052602260045260246000fd5b6000600282049050600182168061152957607f821691505b60208210810361153c5761153b6114e2565b5b50919050565b7f4e487b7100000000000000000000000000000000000000000000000000000000600052601160045260246000fd5b600061157c82610d75565b915061158783610d75565b925082820390508181111561159f5761159e611542565b5b92915050565b7f4e487b7100000000000000000000000000000000000000000000000000000000600052603260045260246000fd5b60006115df82610d75565b91507fffffffffffffffffffffffffffffffffffffffffffffffffffffffffffffffff820361161157611610611542565b5b600182019050919050565b7f50726f6475637420646f6573206e6f7420657869737400000000000000000000600082015250565b600061165260168361111a565b915061165d8261161c565b602082019050919050565b6000602082019050818103600083015261168181611645565b9050919050565b7f50726f6475637420697320616c726561647920736f6c64000000000000000000600082015250565b60006116be60178361111a565b91506116c982611688565b602082019050919050565b600060208201905081810360008301526116ed816116b1565b9050919050565b7f53656c6c65722063616e6e6f7420627579207468656972206f776e2070726f6460008201527f7563740000000000000000000000000000000000000000000000000000000000602082015250565b600061175060238361111a565b915061175b826116f4565b604082019050919050565b6000602082019050818103600083015261177f81611743565b9050919050565b7f496e636f7272656374204554482076616c75652073656e740000000000000000600082015250565b60006117bc60188361111a565b91506117c782611786565b602082019050919050565b600060208201905081810360008301526117eb816117af565b9050919050565b600081905092915050565b50565b600061180d6000836117f2565b9150611818826117fd565b600082019050919050565b600061182e82611800565b9150819050919050565b7f455448207472616e73666572206661696c656400000000000000000000000000600082015250565b600061186e60138361111a565b915061187982611838565b602082019050919050565b6000602082019050818103600083015261189d81611861565b9050919050565b7f5072696365206d7573742062652067726561746572207468616e203000000000600082015250565b60006118da601c8361111a565b91506118e5826118a4565b602082019050919050565b60006020820190508181036000830152611909816118cd565b9050919050565b7f50726f64756374206e616d652063616e6e6f7420626520656d70747900000000600082015250565b6000611946601c8361111a565b915061195182611910565b602082019050919050565b6000602082019050818103600083015261197581611939565b9050919050565b7f4465736372697074696f6e2063616e6e6f7420626520656d7074790000000000600082015250565b60006119b2601b8361111a565b91506119bd8261197c565b602082019050919050565b600060208201905081810360008301526119e1816119a5565b9050919050565b7f4174206c65617374206f6e6520696d6167652069732072657175697265640000600082015250565b6000611a1e601e8361111a565b9150611a29826119e8565b602082019050919050565b60006020820190508181036000830152611a4d81611a11565b9050919050565b7f43616e6e6f742065786365656420313020696d61676573000000000000000000600082015250565b6000611a8a60178361111a565b9150611a9582611a54565b602082019050919050565b60006020820190508181036000830152611ab981611a7d565b9050919050565b60008190508160005260206000209050919050565b60006020601f8301049050919050565b600082821b905092915050565b600060088302611b227fffffffffffffffffffffffffffffffffffffffffffffffffffffffffffffffff82611ae5565b611b2c8683611ae5565b95508019841693508086168417925050509392505050565b6000819050919050565b6000611b69611b64611b5f84610d75565b611b44565b610d75565b9050919050565b6000819050919050565b611b8383611b4e565b611b97611b8f82611b70565b848454611af2565b825550505050565b600090565b611bac611b9f565b611bb7818484611b7a565b505050565b5b81811015611bdb57611bd0600082611ba4565b600181019050611bbd565b5050565b601f821115611c2057611bf181611ac0565b611bfa84611ad5565b81016020851015611c09578190505b611c1d611c1585611ad5565b830182611bbc565b50505b505050565b600082821c905092915050565b6000611c4360001984600802611c25565b1980831691505092915050565b6000611c5c8383611c32565b9150826002028217905092915050565b611c7582610d8e565b67ffffffffffffffff811115611c8e57611c8d6111fb565b5b611c988254611511565b611ca3828285611bdf565b600060209050601f831160018114611cd65760008415611cc4578287015190505b611cce8582611c50565b865550611d36565b601f198416611ce486611ac0565b60005b82811015611d0c57848901518255600182019150602085019450602081019050611ce7565b86831015611d295784890151611d25601f891682611c32565b8355505b6001600288020188555050505b50505050505056fea2646970667358221220641ae5c2a232a3a97c0f997b260ee6151a684fa02385ad78b0a0d5982ff7d6c464736f6c63430008140033",
  "linkReferences": {},
  "deployedLinkReferences": {}
}